:020000040800F2
:10000000601B002449030008354E00086B040008FB
:100010006B040008CD0E00088D5F00080000000092
:100020000000000000000000000000005B0300086A
:100030002113000800000000B70300082151000848
:1000400063030008630300086303000863030008F8
:1000500063030008630300086303000863030008E8
:100060002B1300083113000837130008D10E0008C5
:1000700063030008630300086303000863030008C8
:1000800063030008630300086303000863030008B8
:100090006303000863030008630300083D130008BE
:1000A0006303000863030008630300086303000898
:1000B0006303000863030008630300086303000888
:1000C0006303000863030008630300086303000878
:1000D00063030008355F000863030008415F000800
:1000E00023130008630300080000000063030008F6
:1000F0006303000863030008630300086303000848
:100100006303000863030008630300086303000837
:100110006303000863030008630300086303000827
:10012000DD0E000863030008630300086303000892
:100130006303000863030008630300086303000807
:1001400000000000000000000000000000000000AF
:1001500063030008630300086303000863030008E7
:1001600063030008630300086303000863030008D7
:1001700063030008630300086303000863030008C7
:1001800063030008630300086303000863030008B7
:1001900063030008630300086303000863030008A7
:1001A0006303000863030008630300086303000897
:1001B0006303000863030008630300086303000887
:1001C0006303000863030008630300086303000877
:1001D0006303000863030008630300086303000867
:1001E0006303000863030008630300086303000857
:1001F0006303000863030008630300086303000847
:100200006303000863030008630300086303000836
:100210006303000863030008630300086303000826
:100220006303000863030008630300080000000084
:100230006303000863030008000000006303000874
:1002400063030008630300086303000863030008F6
:1002500063030008630300086303000863030008E6
:1002600063030008630300086303000863030008D6
:100270006303000863030008630300080000000034
:100280006303000863030008630300080000000024
:10029000000000006303000800F002F800F045F8D9
:1002A0000AA090E8000C82448344AAF10107DA45D1
:1002B00001D100F03AF8AFF2090EBAE80F0013F0DE
:1002C000010F18BFFB1A43F001031847F88A00001A
:1002D000188B0000103A24BF78C878C1FAD85207AA
:1002E00024BF30C830C144BF04680C6070470000B0
:1002F0000023002400250026103A28BF78C1FBD82F
:10030000520728BF30C148BF0B6070471FB508F0C7
:10031000C7FB00F097FD04000020002108F0AAFBB5
:10032000401C60601FBD10B510BD00F04FFD1146B0
:10033000FFF7ECFF00F0C5FD00F076FD03B4FFF71A
:10034000F2FF03BC00F082FD0948804709480047DE
:10035000FEE7FEE7FEE7FEE7FEE7FEE7FEE7FEE775
:10036000FEE7FEE704480549054A064B70470000D2
:10037000295300089902000860150024601B00241E
:100380006017002460170024EFF3108072B67047E6
:1003900080F310887047434A1368012B04D04FF054
:1003A00001031360404A1060404A116040484FF01A
:1003B000805101607047EFF3108272B639480168CE
:1003C00051B34FF0000101603748016891B1EFF37C
:1003D00009811EF0100F08BF21ED108B21E9F00FED
:1003E0004FF000041EF0100F08BF012441F8044D27
:1003F000006801602D490968096808C9B1E8F00F73
:10040000002B18BFB1EC108B81F309884EF0100E51
:10041000002B18BF2EF0100E82F310884EF0040E41
:10042000704722490860EFF3148222F0040282F33D
:1004300014881D494FF0000008601A494FF0010070
:1004400008601C484FF47F01D0F8002041EA020107
:10045000016017484FF0805101601748006800683C
:1004600080F3088861B662B670471EF0040F0CBFB7
:10047000EFF30880EFF3098020E9F00F40F804ED76
:1004800040F804ED1EF0040F0CBF80F3088880F3E1
:10049000098800B506F022FF5DF804EB4EF0040E6B
:1004A00070470000B4000024AC000024B000002419
:1004B00004ED00E020ED00E008ED00E053EA020C5E
:1004C00000F069802DE9F04B4FF00006002B1FBFB4
:1004D000B3FA83F503FA05F424FA05F65E4012BF79
:1004E0001643B2FA82F502FA05F4C5F120051EBFE3
:1004F00022FA05FC44EA0C04203556EA044C4FEA83
:10050000144418BF641C4FF000084FF000099042DB
:1005100071EB030C39D3002919BFB1FA81F701FA45
:1005200007F6B0FA80F700FA07F6C7F120071EBFFA
:1005300020FA07FC46EA0C062037B6FBF4FCA7EBD2
:100540000507103F07F01F0BCBF120060CFA0BFB41
:100550002CFA06F644BFB3460026202FA4BF5E4601
:100560004FF0000B5BEA060C08BF4FF0010B19EBD4
:100570000B09ABFB027C48EB0608C01B06FB02CC58
:100580000BFB03CC71EB0C01C1E70B460246414665
:100590004846BDE8F08B13B54FF000004FF0000166
:1005A000AFF30080BDE81C40704700000FB400B5F9
:1005B0008DB010A9099000910B904FF0FF300A9078
:1005C00000200C90064878440690064878446A4615
:1005D00007900F9909A800F005FA0DB05DF814FB1B
:1005E0003B040000530400002DE9FF5F1D464FF05F
:1005F000FF3B91464FF000085F46D5E90146A969E7
:1006000001987F1C8847296A824688470028F6D1CE
:10061000BAF1FF3F0CD0002E24F4C06419DD60064F
:1006200014D5BAF12B0F09D0BAF12D0F0ED103E07A
:10063000584604B0BDE8F09F44F48064A96901986D
:100640007F1C8847761E8246002E02DDBAF1300FED
:1006500003D0B9F1000F26D032E0A969761E0198C7
:100660007F1C44F400748847002E824605DDBAF1F1
:10067000780F06D0BAF1580F03D0B9F1000F10D09F
:100680001EE0B9F1000F02D0B9F1100F18D1A9691D
:10069000761E01987F1C24F400748847824610203F
:1006A00002E0082000E00A20814609E0A96908FB71
:1006B0000908761E01987F1C44F40074884782461E
:1006C000002E05DD4946504600F077F90028EDDAA6
:1006D000E96901988847A00502D46FF00100A8E7F6
:1006E000E00725D1600613D5600502D5C8F10000EA
:1006F00000E0404629680A1D2A600968220501D5E4
:10070000087015E0220701D5088011E008600FE0AD
:100710002868011D29600068210502D580F8008045
:1007200006E0210702D5A0F8008001E0C0F80080B3
:1007300038467EE740EA0103024630B59B0710D1F8
:100740004FF0013400E008C208C91D1B9D4315EAA3
:10075000C41FF8D013F0FF0102F8011B0DD01B0AD3
:10076000F8E711F8013B002B02F8013B05D011F826
:10077000013B002B02F8013BF3D130BD10B5431C07
:1007800002E010F8011B71B18107FAD14FF001327C
:1007900002C88C1A8C4314EAC211F9D0C01A0A0696
:1007A00003D0C01E10BDC01A10BD0A0401D0801EA7
:1007B00010BD0902FCD0401E10BD40EA010370B517
:1007C0009B072ED14FF00136042A2AD308C810C93E
:1007D0009D1B9D43121F15EAC61517D0D8B2E1B272
:1007E000401A50EA056110D198B2A1B2401A50EAFD
:1007F00005410AD123F07F4024F07F41401A50EA9E
:10080000052102D1180EA0EB146070BDA342DBD00D
:1008100018BA21BA884201D9012070BD4FF0FF30CB
:1008200070BD0AB9002070BD10F8013B11F8014BF2
:1008300063B1A3420AD1521E08D010F8013B11F84F
:10084000014B1BB1A34201D1521EEDD1181B70BD4B
:10085000421E12F8013F002BFBD111F8013B002B87
:1008600002F8013BF9D1704710B5203AC0F00B8077
:10087000B1E81850203AA0E81850B1E81850A0E8A4
:100880001850BFF4F5AF5FEA027C24BFB1E81850FE
:10089000A0E8185044BF18C918C0BDE810405FEA6E
:1008A000827C24BF51F8043B40F8043B08BF7047EA
:1008B000D20728BF31F8023B48BF11F8012B28BFEF
:1008C00020F8023B48BF00F8012B70474FF00002B0
:1008D0000429C0F0128010F0030C00F01B80CCF152
:1008E000040CBCF1020F18BF00F8012BA8BF20F8C0
:1008F000022BA1EB0C0100F00DB85FEAC17C24BF14
:1009000000F8012B00F8012B48BF00F8012B7047BD
:100910004FF0000200B5134694469646203922BF98
:10092000A0E80C50A0E80C50B1F12001BFF4F7AFE3
:10093000090728BFA0E80C5048BF0CC05DF804EBC5
:10094000890028BF40F8042B08BF704748BF20F833
:10095000022B11F0804F18BF00F8012B704710B523
:10096000044610F0030F08BF11F0030F40F015808C
:100970004FF0013E121FC0F20E8051F8043BA3EB72
:100980000E0C2CEA030C1CEACE1C08BF40F8043BFA
:10099000F0D0A1F1040102F10402521E08DB11F8AB
:1009A000013B002B00F8013BF7D11146FFF78EFF0A
:1009B000204610BD7047704770473A2800D2303843
:1009C00020F02002412A01D3A2F13700884201D34E
:1009D0004FF0FF3070470000026811441378016047
:1009E00018467047D16005497944516104497944FA
:1009F000116200211161114600F02EB8EDFFFFFFDA
:100A000053000000426842B1016811F8013B23B174
:100A1000521EC0E90012184670470121C160881EAD
:100A2000704742685AB1C368016843B983688B4212
:100A300005D0491E521CC0E90012002070474FF03B
:100A4000FF30704710B5044600F0E6F90068005D1D
:100A500000F0010010BD00002DE9F34F4FF0000A37
:100A60000C4656468DB001200C9001F10C000B9005
:100A700062690B9801219047051E2DD0252D2CD0A1
:100A8000216A8847C0B162690B9801219047216AA9
:100A900088470028F7D16269411E0B98904700E013
:100AA000761CA1690D988847216A88470028F7D1EC
:100AB000E1690D988847DBE7A1690D988847A8424E
:100AC000074601D1761CD3E7E1690D9888477F1C62
:100AD00002D1BAF1000F6FD06BE162690B98002769
:100AE0003D46394690472A2804D162690B98012176
:100AF00090470125DFF8D08262690B980121904769
:100B0000A0F130010A290AD24745E5DC07EB87014D
:100B100000EB4107303FDFD445F01005ECE7E90674
:100B200001D46FF000476C280AD04C2814D06828F4
:100B300015D06A280DD074281CD07A281AD01DE050
:100B400062690B98012190476C2802D045F004059A
:100B500014E045F002050DE045F020050AE0626969
:100B60000B9801219047682802D045F0080505E060
:100B700045F4006562690B9801219047C4E901576B
:100B800065283DD019DC58287AD00CDC452837D0B0
:100B900004DC252826D041289ED131E046282FD0DC
:100BA000472899D12CE05B2877D0612828D063288A
:100BB0007CD0642823D15AE0F6E06F2848D008DCC6
:100BC00066281DD067281BD0692821D06E2816D131
:100BD00027E0702845D0732868D0752847D078283A
:100BE0000DD14DE0A1690D988847252805463FF4B1
:100BF00069AFE1690D9888476D1C3FF46AAFD8E092
:100C00000D9923466A466FF00100AFF30080C5E0FE
:100C100045F0400023464FF000026060A80736D43C
:100C20003EE0E8077FF447AF2068011D21600068BF
:100C3000290501D506701BE7290701D5068017E7AE
:100C4000A90703D5F117C0E9006111E706600FE7B6
:100C500045F0400023464FF008026060A80716D414
:100C60001EE040F60E0125EA0100606016E045F046
:100C7000400023464FF00A026060A80707D40FE047
:100C800045F040006060A80708D5234610220D9962
:100C90006FF00100AFF3008080E007E010222346F0
:100CA0000D996FF00100FFF79FFC77E04FF000090E
:100CB00063284F46C8464B46CB4602D05B2806D039
:100CC00038E0E80601D40120A060012732E0626923
:100CD000D4F80CB00B98012190475E2807D14FF053
:100CE000010949466269D4F80CB00B989047216914
:100CF00039B900210A4603AB43F82120491C0829D1
:100D0000FADBD8B3216949B308F1010862690B988D
:100D1000012190475D28F4D1B9F1000F09D00020DE
:100D200003A951F82020D24341F82020401C082874
:100D3000F7DB03AB2069002820794FEA40701ED012
:100D40005B462246CDF80080CDE901970D99002839
:100D50006FF0010020DAAFF300801FE0C11703AA93
:100D600000EBD1614B1121F01F0102EB8302411A0C
:100D700013680120884003431360C7E719E00D9909
:100D8000224600286FF00100009702DAAFF30080DE
:100D900004E0AFF3008001E0AFF3008000280ADA3E
:100DA000401C06D10C9820B14FF0FF300FB0BDE8C9
:100DB000F08F5046FAE7E90701D10AF1010A06442B
:100DC00000200C9054E60000CCCCCC0C754600F012
:100DD00035F8AE4605006946534620F007008546C3
:100DE00018B020B5FFF7BEFABDE820404FF000066E
:100DF0004FF000074FF000084FF0000B21F0070103
:100E0000AC46ACE8C009ACE8C009ACE8C009ACE845
:100E1000C0098D467047000010B500F013F8001DA2
:100E200010BD00BF517C000010B50446AFF3008038
:100E30002046BDE81040FFF781BA00000048704727
:100E4000001500240048704720150024014918208F
:100E5000ABBEFEE7260002004FF0013C50F8042B29
:100E600051F8043B9A4215D1A2EB0C03934313EAC9
:100E7000CC130BD150F8042B51F8043B9A4209D102
:100E8000A2EB0C03934313EACC13E7D04FF000001E
:100E9000704700BFD01A01BAB1FA81F101F0180110
:100EA00022FA01F0CB40C1F12001DBB2C0B2C01A7E
:100EB0002CFA01F3D11A914311EAC311E6D170471C
:100EC000704710B507F0F2FA002010BDFEE70000F1
:100ED000014800F099BB000000030024014800F025
:100EE00093BB000078030024294A016891423AD05C
:100EF000274A1832914236D0254A3032914232D0B8
:100F0000234A483291422ED0214A603291422AD05F
:100F10001F4A7832914226D01D4A9032914222D007
:100F20001B4AA83291421ED01A4A91421BD0194A3C
:100F30001832914217D0174A3032914213D0154AD5
:100F4000483291420FD0134A603291420BD0114A7D
:100F50007832914207D00F4A9032914203D00D4A25
:100F6000A832914211D1CAB21823103AB2FBF3F25F
:100F70006FF30901032A02F00703074AD25CC26536
:100F800000D9091D81650846704721F0FF01F9E786
:100F90001000024010040240AA8A000830B5224A1C
:100FA000012301689142CAB21BD01F4C1434A142E4
:100FB00017D01D4C2834A14213D01B4C3C34A14205
:100FC0000FD0194C5034A1420BD0174C6434A142BD
:100FD00007D0154C7834A14203D0134C8C34A14275
:100FE0000CD11421114C083AB2FBF1F10F4A8032B6
:100FF00001F01F0504EB8101AB4010E00C4D1824FB
:10100000103A0D44B2FBF4F1A82D00D80831094A7A
:1010100001F01F0402EB8101064AA34080326030D8
:1010200080E80E0030BD00000854025800580258F5
:10103000F0FBFDBF0008024010B50279531E072BDC
:101040002DD8174C0168A1421BD0154C1434A14275
:1010500017D0134C2834A14213D0114C3C34A14278
:101060000FD00F4C5034A1420BD00D4C6434A14230
:1010700007D00B4C7834A14203D0094C8C34A142E8
:1010800003D10849074C443102E00749064C44317A
:1010900004EB8202C0E91B2101219940416710BD88
:1010A00008540258FC580258FC08024010B58369E5
:1010B0004FF0C074826A0146002053B1B3F5005F5F
:1010C00015D072B1012A0CD0022A0AD0032A09D104
:1010D00004E01AB1012A06D0022A03D1C96AC90163
:1010E00000D5012010BDC96AA142FAD010BD002A66
:1010F000F7D0012AF2D0022AF3D0032AF3D010BD90
:101100002DE9F04F804E804FDFF8FC911836DFF864
:10111000F8A148370468856D0AF1300ADFF8ECB1B0
:101120004C45DFF8ECC1DFF8ECE16DD0B4426BD098
:10113000544569D0BC4267D0DFF8D081A8F11808C7
:10114000444561D05C455FD064455DD074455BD05B
:10115000DFF8C481444557D0DFF8BC8108F1180896
:10116000444551D0DFF8B08108F1300844454BD0F8
:10117000DFF8A48108F14808444545D0DFF898819C
:1011800008F1600844453FD0DFF88C8108F1780809
:10119000444539D0DFF8808108F19008444533D0C8
:1011A000DFF8748108F1A80844452DD0DFF86C8180
:1011B000444529D0DFF8648108F11408444523D060
:1011C000DFF8588108F1280844451DD0DFF84C812C
:1011D00008F13C08444517D0DFF8408108F1500879
:1011E000444511D0DFF8348108F1640844450BD040
:1011F000DFF8288108F17808444505D0DFF81C8124
:1012000008F18C08444509D1D0E91948C4F8048094
:10121000C46E1CB1D0E91C48C4F8048004684C4575
:101220002ED0B4422CD054452AD0BC4228D0374EC0
:10123000183EB44224D05C4522D0644520D0744589
:101240001ED0354EB4421BD0334E1836B44217D0A0
:10125000314E3036B44213D02F4E4836B4420FD000
:101260002D4E6036B4420BD02B4E7836B44207D0A8
:10127000294E9036B44203D0274EA836B44215D139
:1012800090F85C603F2406F01F06B440AC60046830
:10129000256825F4802525602EE09A600068C160ED
:1012A000BDE8F08F99600068C260F9E71B4EB44258
:1012B0001BD01A4E1436B44217D0184E2836B442FA
:1012C00013D0164E3C36B4420FD0144E5036B442B2
:1012D0000BD0124E6436B44207D0104E7836B4426A
:1012E00003D00E4E8C36B442DAD190F85C60012403
:1012F00006F01F06B4406C60046863608368402B8E
:101300000368CFD1C9E70000100002408800024006
:10131000A0000240B80002401004024008540258E5
:1013200070474FF4005001F03DB8042001F03AB886
:10133000082001F037B8102001F034B8202001F067
:1013400031B870470A49102210B501F1100006F0BB
:1013500045FB0748002307A11A461C3006F0EEFBA8
:1013600007480068016841F02001016010BD0000DD
:10137000100400247368656C6C5F727800000000D4
:10138000740200242DE9F05F28B190F8351002298D
:1013900004D0802141650120BDE8F09F904C904B26
:1013A0000168183C18338E4ADFF83C92A1428D4CFC
:1013B000DFF838E28E4FDFF83CB2DFF83CA28F4D09
:1013C0008F4E31D091422FD099422DD0A1422BD0B7
:1013D000494529D0714527D0B94225D0DFF810C240
:1013E0000CF1180C61451FD0DFF808C2ACF1600C9D
:1013F000614519D0DFF8FCC1ACF1480C614513D050
:10140000DFF8F0C1ACF1300C61450DD0DFF8E4C17C
:10141000ACF1180C614507D0594505D0514503D0B2
:10142000A94201D0B1422CD1DFF8B4C14FF0040879
:1014300080F83580ACF1180C61451DD091421BD06D
:10144000994219D0A14217D0494515D0714513D002
:10145000B94211D06648183081420DD065486038D5
:10146000814209D063484838814205D0614830380C
:10147000814201D05F481838086820F001000860F8
:10148000ABE0D1F800C02CF00E08DFF854C1C1F871
:101490000080ACF1180C0168614527D0914225D03D
:1014A000994223D0A14221D049451FD071451DD07A
:1014B000B9421BD0DFF838C10CF1180C614515D0CA
:1014C000DFF830C1ACF1600C61450FD0DFF824C10A
:1014D000ACF1480C614509D0DFF818C1ACF1300C13
:1014E000614503D0DFF80CC1ACF1180CD1F800C095
:1014F0002CF0010CC1F800C0DFF8E4804FF0010CC3
:101500000168A8F11808414546D0914244D099425B
:1015100042D0A14240D049453ED071453CD0B9426D
:101520003AD0334A1832914236D0324A603A914228
:1015300032D0304A483A91422ED02E4A303A914227
:101540002AD02C4A183A914226D0594524D05145E8
:1015500022D0A94220D0B1421ED02A4A91421BD0AB
:10156000284A1432914217D0264A2832914213D089
:10157000244A3C3291420FD0224A503291420BD041
:10158000204A6432914207D01E4A7832914203D0F9
:101590001C4A8C32914218D1016E0A6822F4807282
:1015A0000A6090F85C20816D02F01F020CFA02F2D2
:1015B0004A60D0E919124A60C16E31B10A6822F45A
:1015C00080720A60D0E91C124A600022016D80F826
:1015D000342080F835C001B188470020DCE60000E7
:1015E000280002405800024070000240880002407B
:1015F000A00002407004024088040240A00402409F
:10160000B8040240085402582DE9FC5F0446FA4E23
:101610000020DFF8E48300904FF41652F74808F1F9
:101620001808A56DDFF8D0A3DFF8CCB301680AF184
:10163000300A20680BF1480BB1FBF2F1B042019186
:101640002F68D5F800C0DFF8B89336D041468842FD
:1016500033D0504531D058452FD0E74960318842CA
:101660002BD0E5497831884227D0E3499031884230
:1016700023D0E149A83188421FD048451DD0E04918
:101680001831884219D0DE493031884215D0DC4A01
:101690004832904211D0DA49603188420DD0DFF8EB
:1016A00060E30EF1780E704507D0D54B9033984229
:1016B00003D0D349A83188427ED194F85C20082118
:1016C00002F01F0201FA02F23A424BD0B04233D08C
:1016D000404531D050452FD058452DD0C64A6032B4
:1016E000904229D0C44A7832904225D0C24A9032E2
:1016F000904221D0C04AA83290421DD048451BD00C
:10170000BF4A1832904217D0BD4A3032904213D0AF
:10171000BB4A483290420FD0B94A603290420BD057
:10172000B74A7832904207D0B54A9032904203D0FF
:10173000B34AA832904203D1026802F0040202E0E8
:10174000026802F008026AB1026822F00402026034
:1017500094F85C0000F01F008140A960606D40F0CB
:101760000100606594F85C00012100F01F008140D9
:10177000394241D02068B04235D0404533D0504541
:1017800031D058452FD09C4A603290422BD09A4A93
:101790007832904227D0984A9032904223D0964A8D
:1017A000A83290421FD048451DD0954A1832904229
:1017B00019D0934A303200E0B2E1904213D0904AFF
:1017C000483290420FD08E4A603290420BD08C4A01
:1017D0007832904207D08A4A9032904203D0884AA9
:1017E000A83290427ED1406910F0800F04D0A960E9
:1017F000606D40F00200606594F85C00042100F028
:101800001F00814039423FD02068B04233D040456C
:1018100031D050452FD058452DD0774A6032904274
:1018200029D0754A7832904225D0734A903290423E
:1018300021D0714AA83290421DD048451BD0704A31
:101840001832904217D06E4A3032904213D06C4A10
:10185000483290420FD06A4A603290420BD0684AB8
:101860007832904207D0664A9032904203D0644A60
:10187000A83290424FD1006810F0020F04D0A96046
:10188000606D40F00400606594F85C00102100F089
:101890001F008140394259D02068B04235D04045C0
:1018A00033D0504531D058452FD0534A6032904202
:1018B0002BD0514A7832904227D04F4A90329042F2
:1018C00023D04D4AA83290421FD048451DD04C4AE3
:1018D0001832904219D04A4A3032904215D0484AC4
:1018E000483200E015E090420FD0454A6032904205
:1018F0000BD0434A7832904207D0414A903290420E
:1019000003D03F4AA832904207D1006800F0080097
:1019100006E0006870E70068B6E7006800F00400C1
:10192000A0B1A96020680168490304D500680003DC
:1019300008D5A16C07E00168C90503D4016821F04E
:1019400008010160216C09B12046884794F85C00C9
:10195000202100F01F008140394278D02068B04239
:1019600033D0404531D050452FD058452DD0224A54
:101970006032904229D0204A7832904225D01E4AC7
:101980009032904221D01C4AA83290421DD0484546
:101990001BD01B4A1832904217D0194A303290425D
:1019A00013D0174A483290420FD0154A6032904205
:1019B0000BD0134A7832904207D0114A90329042AD
:1019C00003D00F4AA832904203D1006800F0100003
:1019D00002E0006800F00200A0B3A96094F83500AE
:1019E0000428206801680DD049037DD500680003F4
:1019F00029D4616C28E00000100002400C00002493
:101A00001004024021F0160101602068416921F0B4
:101A100080014161206C08B9A06C20B12068016888
:101A200021F00801016094F85C303F21002203F0AE
:101A30001F0301209940A96084F8342084F8350000
:101A4000216D66E003E0E16B09B120468847606DD7
:101A500000287DD0606DC0075AD02068042184F82A
:101A60003510B0422BD0404529D0504527D058459D
:101A700025D09E49884222D09C49183188421ED0E8
:101A80009A49303188421AD098494831884216D054
:101A9000484514D09649884211D09549183188425A
:101AA0000DD093493031884209D09149483188425C
:101AB00005D08F496031884201D08D497831016865
:101AC00021F00101016020680099019A491C0091F0
:101AD000914202D80168C907F6D1002184F8341078
:101AE0000068C00711D000E001E003200EE00168AB
:101AF000C905A8D403680022012123F01003036064
:101B000084F8342084F835109DE7012084F83500EE
:101B1000E16C00291CD002B02046BDE8F05F084708
:101B2000744988421DD073491431884219D07149D3
:101B30002831884215D06F493C31884211D06D4917
:101B4000503188420DD06B496431884209D000E0A1
:101B500086E068497831884203D066498C318842F2
:101B60007ED194F85C800427016808F01F0807FA0A
:101B700008F717EA0C0F009746D04F0744D5009896
:101B80000F04686003D5C8033CD4A16CC1E7880684
:101B900038D42068B0422DD054494839884229D0E1
:101BA000504527D0584525D05049884222D04F492A
:101BB000183188421ED04D49303188421AD04B49E5
:101BC0004831884216D0484514D04949884211D03E
:101BD0004749183188420DD090420BD044494831D2
:101BE000884207D0704505D0984203D040499031D3
:101BF000884203D1016821F0080102E0016821F068
:101C000004010160216C84E7022707FA08F717EA4C
:101C10000C0F00974ED08F074CD500980F046860CA
:101C200003D5C80344D4616C73E7880640D42068A8
:101C3000B0422FD02D49483988422BD0504529D069
:101C4000584527D02949884224D02849183188424C
:101C500020D02649303188421CD02449483100E048
:101C600041E0884216D0484514D02149884211D01D
:101C70001F49183188420DD090420BD01C49483181
:101C8000884207D0704505D0984203D0184990315A
:101C9000884203D1016821F0140102E0016821F0BB
:101CA0000A010160002184F83410012084F8350015
:101CB000E16B2EE7082202FA08F212EA0C0F12D0AA
:101CC000090710D5016821F00E01016094F85C103D
:101CD0000120002201F01F0100FA01F16960606536
:101CE00084F8342012E7BDE8FC9F00007000024039
:101CF00028040240085402582DE9F05F044600F021
:101D000087FC002C07467DD0E34E022120684FF06F
:101D10000308DFF888934FF00005DFF884A3B04292
:101D2000DFF880B334D0DC4A1832904230D04845D6
:101D30002ED050452CD058452AD0DA4A183290423D
:101D400026D0D84A3032904222D0D64A48329042E9
:101D50001ED0D54A90421BD0D34A1832904217D099
:101D6000D14A3032904213D0CF4A483290420FD0FD
:101D7000CD4A603290420BD0CB4A7832904207D0A5
:101D8000C94A9032904203D0C74AA83290427DD1CE
:101D900084F8345084F83510B0422ED0BE49183142
:101DA00088422AD0484528D0504526D0584524D0CE
:101DB000BC491831884220D0BA49303188421CD001
:101DC000B8494831884218D0B749884215D0B64939
:101DD0001831884211D0B449303188420DD0B2490F
:101DE0004831884209D0B0496031884205D0AE49B7
:101DF0007831884201D0AC499031016821F001016D
:101E0000016008E027E100BF00F002FCC01B0528CC
:101E100001D920211CE120680068C007F4D104F139
:101E200008002168D4E9053C8E4685C8096810433E
:101E3000D4E907281F43636A38439C4F40EA0C00EB
:101E40001043394040EA0800042B40EA010003D166
:101E5000D4E90B1211430843954909686FF30F0148
:101E6000B1F1005F0FD36168A1F12902052A08D9F9
:101E7000163A032A05D9083A012A02D94F3903290B
:101E800001D840F48010CEF8000000E023E0206884
:101E9000676A4069042F20F0070047EA00070DD168
:101EA000D4E90A01074349B12046FFF7FFF828B1FA
:101EB00040206065012184F83510CCE0206847613E
:101EC0002046FFF711F894F85C203F2102F01F0232
:101ED0009140816054E0774A90421BD0754B143397
:101EE000984217D0734B2833984213D0714B3C3330
:101EF00098420FD06F4B503398420BD06D4B6433E8
:101F0000984207D06B4B7833984203D0694B8C339F
:101F100098427DD1684B84F8345084F835100168BC
:101F2000A26801EA030E402A73D0802A72D00022F0
:101F3000D4E90378D4E9053142EAD70242EAD80865
:101F40005C4AD4E9077C48EAD30848EAD10141EA6F
:101F5000D701524241EA1C11142341EA0E010160EB
:101F600020681044B0FBF3F08000E0652046FEF7E7
:101F7000BBFF94F85C20012102F01F0291404160F8
:101F80002068B04257D044491831884253D0484560
:101F900051D050454FD058454DD042491831884214
:101FA00049D040493031884245D03E494831884285
:101FB00041D03D4988423ED03B49183188423AD011
:101FC00039493031884236D037494831884232D099
:101FD0003549603188422ED03349783188422AD041
:101FE00031499031884226D02F49A831884222D0E9
:101FF000304988421FD02F49143188421BD02D49C7
:102000002831884217D02B493C31884213D002E056
:102010001DE017E018E02749503188420BD02549D0
:102020006431884207D023497831884203D021495E
:102030008C31884229D12046FEF7B0FFA068802865
:102040000CD00CE0102273E74FF4804270E740217F
:10205000616584F835800120BDE8F09F6560216EE0
:1020600020790860D4E9190141606068401E0728A2
:1020700008D82046FEF7E0FFE06E0560D4E91C01B9
:10208000416002E0E566256765670120656584F8C3
:1020900035000020E0E70000100002404000024050
:1020A0005800024070000240100402403F8010FEC1
:1020B0000010005C085402580F00FEFF2DE9F84F95
:1020C00004008C464FF00000009013D094F83400C8
:1020D000012811D094F835500120002184F83400F3
:1020E000012D0BD084F83410C20200906265009874
:1020F000BDE8F88F0120FBE70220F9E78C4D0226AE
:10210000206884F83560A8428A4D61658A4E8B4FFD
:10211000DFF82C82DFF82C92DFF82CA2DFF82CB24B
:1021200026D0A84224D0B04222D0B84220D0404588
:102130001ED048451CD050451AD0584518D0844967
:10214000884215D082491831884211D080493031F7
:1021500088420DD07E494831884209D07C4960319F
:10216000884205D07A497831884201D07849903147
:10217000016821F00101016061462046FEF7C0FFC1
:102180006B49206888422CD0A8422AD0B04228D07F
:10219000B84226D0404524D0484522D0504520D0D2
:1021A00058451ED06A4A90421BD0694A1832904264
:1021B00017D0674A3032904213D0654A4832904275
:1021C0000FD0634A603290420BD0614A783290421D
:1021D00007D05F4A9032904203D05D4AA8329042C5
:1021E0000CD1026822F01E0242F016020260206C3E
:1021F00088B12068026842F008020BE0026822F011
:102200000E0242F00A020260206C20B120680268CF
:1022100042F004020260206888424BD0A84249D0B4
:10222000B04247D0B84245D0404543D0484541D060
:1022300050453FD058453DD0454A90423AD0444A57
:102240001832904236D0424A3032904232D0404A20
:10225000483290422ED03E4A603290422AD03C4AC8
:102260007832904226D03A4A9032904222D0384A70
:10227000A83290421ED0374A90421BD0354A1432C1
:10228000904217D0334A2832904213D0314A3C3220
:1022900090420FD02F4A503290420BD02D4A6432D8
:1022A000904207D02B4A7832904203D0294A8C3290
:1022B00090420DD1206E0268D20303D5026842F429
:1022C00080720260E06E18B1026842F480720260AF
:1022D0002068884226D0A84224D0B04222D0B842FA
:1022E00020D040451ED048451CD050451AD05845F6
:1022F00018D01749884215D015491831884211D095
:102300001349303188420DD011494831884209D0F3
:102310000F496031884205D00D497831884201D09B
:102320000B499031016841F001010160DFE60000D6
:1023300010000240280002404000024058000240C5
:102340007000024088000240A0000240B800024035
:102350001004024008540258102810B513D005DCB0
:1023600004280ED0082819D1022105E020280CD01D
:10237000B0F5005F12D104210948BDE8104005F016
:10238000E5B90121F8E70321F6E7172000F08AFA02
:102390000221BDE81040012006F016B910BD000072
:1023A0004C0400244FF0B04110B5D1F8882002420F
:1023B00003D0C1F88800FFF7CFFF10BD2DE9FC4F17
:1023C00001257E4C00234FF0030A4FF0B04E4FF032
:1023D0000F0BEBE005FA03F637403A0077D04F6871
:1023E000012F05D0022F03D0112F01D0122F1AD1A7
:1023F00087684FEA4308D1F80CC00AFA08F927EABF
:1024000009070CFA08FC4CEA070CC0F808C047683A
:1024100091F804C0B743CCF3001C0CFA03FC4CEA5F
:10242000070CC0F804C0C6684FEA430CD1F8088016
:10243000E1460AFA0CF7BE43019708FA09F848EAA0
:102440000608C0F80C804E68022E01D0122E12D160
:10245000DE084FEA437C00EB860600960F69366A79
:102460004FEADC6C0BFA0CF807FA0CF726EA0806C0
:102470003743009E37620E790768DDF804C006F026
:10248000030606FA09F627EA0C073E4306604E6883
:10249000F6001CD54A4E376847F0020737603668A9
:1024A0009F0706F00206009623F0030606F1B046E9
:1024B000B1463F0FD6F80864DFF808810BFA07FC35
:1024C000404526EA0C0603D14FF0000C41E06CE0D9
:1024D000DFF8F4C0604502D14FF0010C39E0DFF8BD
:1024E000ECC0604502D14FF0020C32E0DFF8E0C0F2
:1024F000604502D14FF0030C2BE0DFF8D8C06045F7
:1025000002D14FF0040C24E0DFF8CCC0604502D1CA
:102510004FF0050C1DE0DFF8C4C0604502D14FF05C
:10252000060C16E0DFF8B8C0604502D14FF0070C8A
:102530000FE0DFF8B0C0604502D14FF0080C08E0B2
:10254000DFF8A4C0604502D14FF0090C01E04FF064
:102550000A0C0CFA07FC4CEA060CC9F808C42668F9
:102560004F6826EA0206FF0300D516432660666818
:102570004F6826EA0206BF0300D516436660D1F80D
:1025800004C07646DEF800705FEACC2C27EA02072A
:1025900000D517433760D1F804C077685FEA8C2C08
:1025A00027EA020700D5174377605B1C0A681746C5
:1025B000DA407FF40FAFBDE8FC8F000080000058C8
:1025C000F44402580000025800040258000802585F
:1025D000000C02580010025800140258001802584B
:1025E000001C02580020025800240258426931EAB7
:1025F000020200D10904816170470AB1816170470C
:102600000904FBE701480068000C70470010005CFB
:1026100001488068704700000000002430B590F841
:102620004120202A24D190F84020012A20D00123E3
:1026300080F84030242280F84120202300240268C2
:10264000156825F0010515600268156825F48055A8
:102650001560026815680D43156001680A6842F04C
:1026600001020A6080F8413080F84040002030BD0F
:10267000022030BD30B590F84120202A22D190F8B8
:102680004020012A1ED0012380F84030242280F807
:102690004120202400250268136823F00103136001
:1026A0000268136823F4706343EA01211160016832
:1026B0000A6842F001020A6080F8414080F8405008
:1026C000002030BD022030BD70B5040004D094F865
:1026D0004100002510B106E0012070BD204684F8BD
:1026E000405000F04DF8242084F841002068016833
:1026F00021F001010160D4E9001020F07060086150
:102700002068816821F400418160E0682168012827
:10271000A06806D040F404408860E068022803D036
:1027200006E040F40040F7E721684FF4006048609D
:1027300020212068114A4368134343602068C2681F
:1027400022F40042C26054F8106B0DCC104340EAF2
:102750000320F06054F81C3CD4E9000210431860D8
:1027600054F81C0D026842F001020260656484F8AE
:102770004110256384F84250002070BD00800002A3
:1027800010B586B0044614216846FEF7C1F8134917
:10279000206888421FD11248016841F0020101609F
:1027A00000680423C02100F0020005900020009181
:1027B00012226946CDE90120CDE903030948FFF75C
:1027C000FDFD07480830016841F400110160006810
:1027D00000F40010059006B010BD00000054004049
:1027E000E044025800040258032010B500F098F8A5
:1027F00000F0FAFF0F4A104914681368C4F303226B
:1028000003F00F038A5CC95C02F01F0201F01F0194
:10281000D0400A4A20FA01F11160094908600020FD
:1028200000F010F808B1012010BD00F02BF80020D6
:1028300010BD000018440258CA8A00081000002485
:102840000C00002470B50D4D04462878A0B14FF45B
:102850007A71B1FBF0F00A490968B1FBF0F001F0C0
:10286000E3FA48B9102C07D200222146501E00F08E
:1028700037F800206C6070BD012070BD000000249E
:102880000C000024064882B0016841F0020101609A
:10289000006800F002000090052002B000F040B88F
:1028A000F444025800280DDB410900F01F028900A2
:1028B000012001F1E0219040C1F88001BFF34F8F6A
:1028C000BFF36F8F7047002809DB410900F01F023A
:1028D0008900012001F1E0219040C1F8000170471A
:1028E0000E4BF0B41B680D46C3F30223C3F1070679
:1028F000042E00D90426191D072901D2002300E067
:10290000DB1E012404FA06F19C40491E2940641E86
:10291000994014402143F0BC03F039BB0CED00E0BA
:10292000064900F0070210B54FF6FF040868044B93
:10293000204040EA02201843086010BD0CED00E082
:102940000000FA05134970B50A68D243520705D54D
:10295000096801F00701814213D118E00A6822F0EA
:10296000070202430A60FFF753FE0A4D4FF47A76DE
:102970000446083D07E000BFFFF74AFE001BB042D7
:1029800001D9012070BD2868C0438004F4D4002020
:1029900070BD00000C48025810B500F0DFFE05497C
:1029A0000968054AC1F30211515C01F01F01C840DA
:1029B00010BD000020440258CA8A0008494930B5B9
:1029C000484C0B1D0A68143409681D68246802F01D
:1029D0000303C5F30012C1F30531C4F3CC0400298D
:1029E00014FB02F200EE102AF8EE400A75D03F4ABE
:1029F0009FED3D1AB7EE000A6BB1DFED3D1A012BDA
:102A000001D0022B64D002EE101A1168F8EE422AAF
:102A100081EEA22A21E0334C283C23689B0612D584
:102A2000344B246801EE901A1168C4F3C104F8EE27
:102A3000612AE34001EE903AC1F30801F8EE611A11
:102A400081EEA22A0BE001EE901ADFED2B2A00BFE7
:102A5000F8EE611A116882EEA12AC1F3080101EEB5
:102A6000901A1168F8EE611A40EE811A71EE800A30
:102A700062EE200AC1F3462101EE101AB8EE411AA7
:102A800031EE001AC0EE811ABCEEE11A80ED001A98
:102A90001168C1F3064101EE101AB8EE411A31EE89
:102AA000001AC0EE811ABCEEE11A80ED011A11681D
:102AB000C1F3066101EE101AB8EE411A31EE000AB8
:102AC00080EE801ABCEEC10A80ED020A30BD04E03F
:102AD00001EE901ADFED092ABAE70021016041609A
:102AE0008160F3E728440258000000393844025856
:102AF0000024744A0090D0030024744C001B374B10
:102B0000494930B5484C0B1D0A681C3409681D68DA
:102B1000246802F00303C5F30022C1F30551C4F396
:102B2000CC04002914FB02F200EE102AF8EE400A51
:102B300075D03F4A9FED3D1AB7EE000A6BB1DFED4D
:102B40003D1A012B01D0022B64D002EE101A11683D
:102B5000F8EE422A81EEA22A21E0334C283C236879
:102B60009B0612D5344B246801EE901A1168C4F309
:102B7000C104F8EE612AE34001EE903AC1F3080186
:102B8000F8EE611A81EEA22A0BE001EE901ADFED59
:102B90002B2A00BFF8EE611A116882EEA12AC1F358
:102BA000080101EE901A1168F8EE611A40EE811AE0
:102BB00071EE800A62EE200AC1F3462101EE101A7E
:102BC000B8EE411A31EE001AC0EE811ABCEEE11ADD
:102BD00080ED001A1168C1F3064101EE101AB8EE3B
:102BE000411A31EE001AC0EE811ABCEEE11A80EDF6
:102BF000011A1168C1F3066101EE101AB8EE411A0C
:102C000031EE000A80EE801ABCEEC10A80ED020AA5
:102C100030BD04E001EE901ADFED092ABAE7002189
:102C2000016041608160F3E72844025800000039E8
:102C3000404402580024744A0090D0030024744C8D
:102C4000001B374B2DE9FC5F044650F8241B002580
:102C500000902E460801FE4FDFF8F8831DD5606E08
:102C600050B1B0F5801F0CD0B0F5001F0ED0B0F5FC
:102C7000401F1DD001250FE0386840F40030386057
:102C800016E00221201D02F02BF903E0009802213A
:102C900002F0B6F905000BD02E462088C00523D5DA
:102CA000606D05281ED2DFE800F00C11161B1B001A
:102CB000626ED8F8001021F440111143C8F80010DA
:102CC000EBE7386840F40030386009E00021201D4F
:102CD00002F006F903E00098002102F091F90546A0
:102CE0006DB100E001252E462088800528D5A06D15
:102CF00080281ED00CDC90B140280ED114E0626D0B
:102D0000D8F8001021F007011143C8F80010EBE7D4
:102D1000C02813D0B0F5807F10D001250FE03868AF
:102D200040F40030386009E00021201D02F0D8F89E
:102D300003E00098002102F063F9054695B12E46A4
:102D40002088DFF81093400509F108092CD5D4F844
:102D5000A400B0F5800F20D00DDCA0B1B0F5001FAD
:102D60000FD115E0A26DD8F8001021F4E0711143E5
:102D7000C8F80010E4E7B0F5C00F13D0B0F5000FAD
:102D800010D001250FE0386840F40030386009E0C9
:102D90000021201D02F0A4F803E00098002102F0B9
:102DA0002FF9054675B12E46208800052DD5D4F89B
:102DB000A800B0F1007F21D00EDCA8B1B0F1807F77
:102DC00010D116E0D4F8A420D9F8001021F4600145
:102DD0001143C9F80010E7E7B0F1407F13D0B0F11C
:102DE000806F10D001250FE0386840F40030386063
:102DF00009E00021201D02F073F803E00098002193
:102E000002F0FEF805466DB12E46206880011FD500
:102E1000A06CD8B110280FD0202812D0302815D09F
:102E2000012514E0D4F8A820D9F8001021F0E061C1
:102E30001143C9F80010E8E7386840F40030386002
:102E400004E00221201D02F04BF805466DB12E462C
:102E50002088C0042BD5E06DB0F5005F20D00DDCDC
:102E6000A0B1B0F5805F0FD115E07A48A26C001FC9
:102E7000016821F0300111430160E9E7B0F5405FDE
:102E800013D0B0F5804F10D001250FE0386840F422
:102E90000030386009E00021201D02F021F803E035
:102EA0000098002102F0ACF8054685B12E46208836
:102EB000800429D5206EB0F5403F23D010DC08B344
:102EC000B0F5803F14D0B0F5003F0FD115E0E26DB2
:102ED000D8F8001021F4E0411143C8F80010E6E7EB
:102EE000B0F5802F0ED0B0F5A02F0BD001250AE051
:102EF0000121201D01F0F4FF03E00098012102F000
:102F00007FF805468DB12E46208840042AD5D4F896
:102F1000AC00B0F1405F23D010DC08B3B0F1805FAB
:102F200014D0B0F1005F0FD115E0226ED8F8001078
:102F300021F4E0211143C8F80010E5E7B0F1804F1B
:102F40000ED0B0F1A04F0BD001250AE00121201DC9
:102F500001F0C6FF03E00098012102F051F8054698
:102F60006DB12E46208800041FD5E06ED8B1B0F1B7
:102F7000805F0ED0B0F1005F10D0012514E0D4F8CE
:102F8000AC20D9F8001021F0E0411143C9F800103D
:102F9000E8E7386840F40030386004E00121201D83
:102FA00001F09EFF05466DB12E462068C0011ED57A
:102FB000606CD0B101280ED0022811D0032814D0A3
:102FC000012513E0E26ED8F8001021F040511143C2
:102FD000C8F80010E9E7386840F40030386004E0D1
:102FE0000221201D01F07CFF054685B12E46206898
:102FF000DFF85CB04002ABF11C0B57D516480168F6
:1030000041F480710160FFF703FB82460EE0114836
:10301000626C001F016821F0030111430160E6E7C3
:10302000FFF7F6FAA0EB0A0064283DD80A480068CA
:10303000C005F5D57DBBDFF81CA0B4F8B0100AF1CF
:10304000200ADAF8000001F4407100F4407005E055
:103050002C4402585044025800480258884211D06B
:10306000DAF80010DAF8002021F4407142F48032DE
:10307000CAF80020DAF8002022F48032CAF80020D2
:10308000CAF80010D4F8B000B0F5807F21D1FFF766
:10309000BFFA019019E008E0FFF7BAFA0199411A66
:1030A00041F28830814210D903252E462078DFF87E
:1030B00030A4C0073DD0A06F182838D026DC80B3DC
:1030C000082829D0102825D12CE0DAF80000800744
:1030D000E2D5D4F8B010C1F30120032858460DD032
:1030E000016821F47C510160B4F8B020DAF80010D6
:1030F000C2F30B021143CAF80010D7E7F94A03687C
:1031000002EA111223F47C511143ECE720280ED07F
:1031100028280CD001250BE00121201D01F0E0FE44
:1031200004E004E00098012101F06AFF05465DB16A
:103130002E46207880071ED5606F062819D2DFE85A
:1031400000F0160C11161616A26FDAF8001021F016
:1031500038011143CAF80010EBE70121201D01F0EE
:10316000BFFE03E00098012101F04AFF054675B15A
:1031700000E001252E46207840071FD5D4F89000A6
:10318000062819D2DFE800F0160C11161616626F29
:10319000DAF8001021F007011143CAF80010EAE73D
:1031A0000121201D01F09CFE03E00098012101F0A7
:1031B00027FF05469DB100E001252E4620788006B8
:1031C0002BD5D4F88C00B0F1405F24D011DC10B3C3
:1031D000B0F1805F15D0B0F1005F10D116E0D4F8E7
:1031E0009020D9F8001021F007011143C9F8001010
:1031F000E4E7B0F1804F0ED0B0F1A04F0BD0012525
:103200000AE00021201D01F06BFE03E0009802217E
:1032100001F0F6FE05468DB12E46207840062BD5EE
:10322000D4F89800B0F5406F24D011DC10B3B0F59D
:10323000806F15D0B0F5006F10D116E0D4F88C2057
:10324000DAF8001021F0E0411143CAF80010E4E779
:10325000B0F5805F0ED0B0F5A05F0BD001250AE07D
:103260000021201D01F03CFE03E00098022101F046
:10327000C7FE05468DB12E46207800062BD5D4F822
:103280009C00B0F5C04F24D011DC10B3B0F5005F46
:1032900015D0B0F5804F10D116E0D4F89820D9F8A9
:1032A000001021F4E0511143C9F80010E4E7B0F533
:1032B000004F0ED0B0F5204F0BD001250AE00021C1
:1032C000201D01F00DFE03E00098022101F098FEA0
:1032D00005464DB12E46207800071ED5D4F8800053
:1032E000B0F5805F0AD00FE0D4F89C20D9F8001028
:1032F00021F460411143C9F80010ECE70098022165
:1033000001F07EFE00B10126D4F88020DAF800102A
:1033100021F440511143CAF800102078C00613D59B
:10332000D4F89400B0F5807F05D10098022101F017
:1033300067FE00B10126D4F89420D9F8001021F4DA
:1033400040711143C9F800102068000316D5D4F865
:10335000A00038B1B0F5803F09D0B0F5003F0BD0E8
:1033600001250AE00021201D01F0BAFD03E00098CC
:10337000022101F045FE054685B12E462068400336
:1033800022D5D4F88400B0F5801F11D0B0F5001F0D
:1033900013D0B0F5401F15D0012514E0D4F8A020BB
:1033A000D9F8001021F440311143C9F80010E5E7C5
:1033B000386840F40030386004E00098012101F0E2
:1033C0001FFE054655B12E462068C0031CD5E06C93
:1033D00070B1B0F5803F10D0012514E0D4F88420FE
:1033E000DAF8001021F440111143CAF80010EBE79D
:1033F000386840F40030386004E00221201D01F0FC
:103400006FFD0546CDB12E462068800005D5009899
:10341000022101F0F5FD00B10126206880031BD5D3
:10342000E06FB8B1B0F5807F10D0B0F5007F11D05B
:10343000B0F5407F0ED001250DE02948E26C083838
:10344000016821F4803111430160DDE7386840F400
:1034500000303860F5B32E462068C00207D5226FD1
:10346000D8F8001021F000411143C8F8001020687E
:10347000C00008D5D4F8B420DBF8001021F4804156
:103480001143CBF800102068800207D5A26ED8F84F
:10349000001021F080711143C8F80010206840002E
:1034A0000CD5DBF8001021F40041CBF80010DBF85C
:1034B0000010D4F8B8201143CBF800102068002881
:1034C00007DA0748226D0838016821F0405111439E
:1034D000016000E008E086B10120BDE8FC9F00002B
:1034E00054440258CFFFFF00E26FDAF8001021F4D5
:1034F00040711143CAF80010AEE70020EDE700006C
:103500002DE9F05F04000F467ED0DFF83882D8F84E
:10351000000000F00F00B8420CD2D8F8001021F0E3
:103520000F013943C8F80010D8F8000000F00F0070
:10353000B84269D12078844D40070AD520692968AE
:1035400001F07001884204D9296821F0700101431B
:10355000296020787C4E361D00070AD560693168E5
:1035600001F07001884204D9316821F070010143F3
:1035700031602078C0060AD5A069316801F4E061A5
:10358000884204D9316821F4E06101433160207838
:10359000DFF8B4B180060BF1080B0CD5E169584691
:1035A000DBF8002002F07002914204D9026822F098
:1035B00070020A430260207880070AD5E068296813
:1035C00001F00F01884204D9296821F00F0101435D
:1035D00029602078C0073ED05B49A2682868183966
:1035E00020F47060104328606068022818D0032817
:1035F00019D00968012819D0490700294ADADFF8EB
:1036000048A1AAF1080A00E044E0DAF8002022F01C
:1036100007020243CAF80020FEF7FAFF814612E0D3
:1036200009688903E9E709688901E6E7C905E4E76C
:10363000FEF7EEFFA0EB090141F28830814202D98A
:103640000320BDE8F09F6168DAF8000000F0380060
:10365000B0EBC10FECD1207880070AD5E06829686B
:1036600001F00F01884204D2296821F00F010143C3
:103670002960D8F80010404601F00F01B9420BD97B
:10368000016821F00F0139430160006800F00F006C
:10369000B84201D00120D4E7207840070AD520693C
:1036A000296801F07001884204D2296821F0700174
:1036B00001432960207800070AD56069316801F06C
:1036C0007001884204D2316821F0700101433160F9
:1036D0002078C0060AD5A069316801F4E06188420B
:1036E00004D2316821F4E061014331602078800622
:1036F0000CD5E1695846DBF8002002F070029142D7
:1037000004D2026822F070020A43026000F06CF8F2
:103710000E492A682B68C2F3032203F00F038A5C68
:10372000C95C02F01F0201F01F01D040084A20FAD4
:1037300001F111600749086007480068BDE8F05FC3
:10374000FFF780B80020005218440258CA8A0008C7
:10375000100000240C0000240400002430B500F008
:1037600043F80B4A0B490C4B15681468C5F3032248
:1037700004F00F048A5C095D02F01F0201F01F01D2
:10378000D040064A20FA01F119601060084630BDA9
:1037900018440258CA8A0008100000240C000024B3
:1037A00000B5FFF7DBFF05490968054AC1F30211BF
:1037B000515C01F01F01C84000BD00001C440258CC
:1037C000CA8A000800B5FFF7C9FF05490968054A1C
:1037D000C1F30221515C01F01F01C84000BD00008F
:1037E0001C440258CA8A0008454970B54548096812
:1037F000434B103B11F0380208D00111082A03D0C6
:10380000102A0BD0182A0BD0084670BD19688906FB
:10381000FBD51968C1F3C101C84070BD3A4870BDFD
:103820003749374D18310C1D24350A680968266858
:103830002D6802F0030406F00102C1F30511C5F37F
:10384000CC0515FB02F200EE102AB8EE400AE9B3EF
:103850002F4ADFED2E0AB7EE001A6CB1DFED2D1AFC
:10386000012C01D0022C43D002EE101A1068F8EEA1
:10387000422A81EEA22A1EE01C68A40611D51B680C
:1038800001EE901A1168C3F3C103F8EE612AD84023
:1038900001EE900AC1F30800F8EE611A81EEA22A47
:1038A0000BE001EE901ADFED1C2A00BFF8EE611A62
:1038B000106882EEA12AC0F3080001EE900AF8EE2B
:1038C000611A40EE201A31EE810A00E015E022EE86
:1038D000000A1068C0F34620401C00EE900AF8EE83
:1038E000600A80EE201ABCEEC10A10EE100A70BD0C
:1038F00001EE901ADFED092AD8E7002070BD000024
:10390000104402580090D003001BB700000000399B
:10391000304402580024744A0024744C001B374B76
:103920002DE9F05F04007CD0FF4F2078FE4D183762
:10393000DFF8F493103DC00748D0D9F8000039688B
:1039400000F03800102815D0182803D101F003002A
:1039500002280FD06068B0F5803F12D010B1B0F5EA
:10396000A02F18D0286820F480302860286820F420
:10397000802009E02868800328D560680028D2D01C
:1039800024E0286840F480302860606888B1FEF741
:103990003FFE064609E0286840F480202860F0E7F2
:1039A000FEF736FE801B64287ED828688003F7D592
:1039B0000CE0FEF72DFE064605E000BFFEF728FEF0
:1039C000801B6428F0D828688003F7D4207841F25F
:1039D0000308D54E0C3E800753D5D9F8000039684E
:1039E00010F038000ED0182801D188070AD0E068FE
:1039F000A8B3296821F0190101432960FEF708FEE8
:103A000082461BE02868400702D5E06800288AD07B
:103A1000FEF7F8FD40451BD82069402812D03168D8
:103A200000E0CCE021F47C3141EA0030306028E055
:103A3000FEF7EEFDA0EB0A000228B5D82868400783
:103A4000F6D5E5E7306820F47C3040F40030EDE74F
:103A5000207C316821F0FE4141EA0060E6E7FFE7A3
:103A6000286820F001002860FEF7D2FD824605E0BC
:103A7000FEF7CEFDA0EB0A00022895D82868400783
:103A8000F6D42078C0065FD5D9F80000DFF898B2E8
:103A9000396800F03800ABF1040B082812D0182860
:103AA00005D101F0030000E0EAE001280AD0E06956
:103AB0000028286838D040F080002860FEF7A8FD74
:103AC000824623E02868C00523D5E069802876D1A6
:103AD0001FE0206A202821D0316821F0F84141EA16
:103AE0008060306030E000BF94F82010DBF80020E8
:103AF00022F07C5242EA0161CBF8001024E000BFC2
:103B0000FEF786FDA0EB0A00022896D82868C005BB
:103B1000F6D5FEF777FD4045E6D8DAE7306820F0C5
:103B2000F84040F08040DCE720F080002860FEF79D
:103B30006FFD064605E000BFFEF76AFD801B022808
:103B40009BD82868C005F7D42078000729D5764887
:103B50006169643000298046016811D041F001019B
:103B60000160FEF755FD064605E000BFFEF750FD7B
:103B7000801B0228C9D8D8F800008007F6D510E0CD
:103B800021F001010160FEF743FD064605E000BF9C
:103B9000FEF73EFD801B022872D8D8F8000080078F
:103BA000F6D42078800623D5A0690028286810D094
:103BB00040F480502860FEF72BFD064605E02CE11E
:103BC000FEF726FD801B02285AD828688004F7D506
:103BD0000EE020F480502860FEF71AFD064604E04F
:103BE000FEF716FD801B02284AD828688004F7D407
:103BF000207840074FD5DFF83481D8F8001041F421
:103C00008071C8F80010FEF703FD064605E000BF0E
:103C1000FEF7FEFC801B642832D8D8F80000C005EF
:103C2000F6D5414EA068603601280AD008B10528B3
:103C300013D0306820F001003060306820F00400BC
:103C400002E0306840F001003060A06841F2883A3C
:103C500090B1FEF7DDFC80460AE0306840F00400D9
:103C60003060EEE7FEF7D4FCA0EB0801514507D821
:103C700030688007F6D50EE0FEF7CAFC804607E004
:103C800084E000BFFEF7C4FCA0EB080151457DD8DD
:103C900030688007F6D4606AF0B3DFF88C80D9F81A
:103CA000001008F12008C1F3C20103296FD00228D7
:103CB000286820F08070286003D0FEF7A9FC044635
:103CC00080E0FEF7A5FC064605E000BFFEF7A0FC7D
:103CD000801B022873D828688001F7D4E26A40F27A
:103CE000F331386854F8283F884340EA02101843FB
:103CF0003860217B4FF4FE0C22894FF0FE47208A6A
:103D00004902267D521E401EA1F5007189B20CEABF
:103D10000040C2F3080200E081E01143761E014337
:103D2000014807EA066203E01044025800480258BE
:103D30001C3011433B4AC8F80010016821F0010112
:103D4000016011684FF6F876236AB14341EAC30176
:103D500011600168A26921F00C0111430160016842
:103D6000E26921F0020111430160016841F48031F0
:103D70000160016841F400310160016841F4802173
:103D80000160016841F00101016001E017E01DE000
:103D9000286840F080702860FEF73AFC044604E092
:103DA000FEF736FC001B022809D828688001F7D5E9
:103DB00035E000BFFEF72CFC001B022802D90320CF
:103DC000BDE8F09F28688001F4D428E03968012814
:103DD000D8F8000021D0A26A01F0030393421CD15D
:103DE000E26AC1F305118A4217D1216BC0F30802C0
:103DF000491E8A4211D1616BC0F34622491E91428D
:103E00000BD1A16BC0F30642491E914205D1E16B73
:103E1000C0F30660491E814201D00120D0E7002096
:103E2000CEE7000034440258401EB0F1807F10B548
:103E300001D3012010BD4FF0E02460610F21601715
:103E400002F0A5F80020A0610721216110BD00004B
:103E50002DE9F04390F83C20012A42D0012280F85D
:103E60003C2051F80C4BDFF880804FF0000991E8BE
:103E7000680051E9022723F44073B1F80CC03B43BA
:103E8000CF6923F480631343026823F40063234360
:103E900023F4805343EA050323F4005343EA060363
:103EA00023F4804343EA07030C3923F4702342458B
:103EB00043EA0C4302D00D4CA2420CD18D8C23F46A
:103EC0007006D1E9073446EA055121F080711943A3
:103ED00021F000732343536480F83C900020BDE838
:103EE000F0830220FBE700000000014000040140D5
:103EF000F0B590F83C20012A38D01D4E012480F8FE
:103F00003C40022280F83D2002681A4D5368B242BC
:103F1000D2F808C001D0AA4203D14F6823F470033D
:103F20003B430F6823F070031F4357600268B2429F
:103F300010D0B2F1804F0DD00F4B9A420AD00F4BE8
:103F40009A4207D00E4B9A4204D0AA4202D00D4B9F
:103F50009A4204D189682CF08003194391600021B2
:103F600080F83D4080F83C100846F0BD0220F0BDCE
:103F7000000001400004014000040040000800402F
:103F8000000C00400018004010B5040003D094F865
:103F90003D0010B107E0012010BD002084F83C0076
:103FA000204600F023F8022084F83D002068211DFF
:103FB00001F02CFA012084F8480084F83E0084F8CF
:103FC0003F0084F8400084F8410084F8420084F8FF
:103FD000430084F8440084F8450084F8460084F8DF
:103FE000470084F83D00002010BD000008B50168BE
:103FF000B1F1804F0CD0114A1148914212D10168A1
:1040000041F400310160006800F40030009008BD08
:104010000B480838016841F001010160006800F0B8
:104020000100F3E7074A9142F1D1016841F4802190
:104030000160006800F48020E8E7000000440140CF
:10404000F04402580048014070B5044690F83C0026
:10405000012814D0394B012584F83C50022084F803
:104060003D0022689068184020F47F409060086806
:10407000702828D010DC10F00F0F03D04BE04FF069
:10408000020070BD4FEA2012072A44D2DFE802F096
:104090005151515149323A00B0F1101F49D009DC59
:1040A000B0F5805F37D0B0F5005F17D0B0F5801F56
:1040B00031D13EE0A0F5801120393AD0102938D016
:1040C000202928D135E04A682068D1E9021301F09F
:1040D0000CFA2068816841F0770109E04A6820689D
:1040E000D1E9021301F001FA2068816841F48041AE
:1040F000816010E0CA684968206801F091FB20687F
:10410000502106E0CA684968206801F09AFB2068DF
:10411000602101F0F3F9002084F83D5084F83C0060
:1041200070BDCA684968206801F07AFB20684021A8
:10413000EFE7226801461046EBE7000088FFCEFF5C
:1041400070B586B0044614216846FCF7E1FB25688B
:1041500000211A4A02231A480124B5F1804F15D0D4
:10416000184EB5421CD1156845F00205156012685D
:1041700002F002020592DA010092CDE90131CDE9A7
:1041800003146946FEF71AF906B070BD156845F0CC
:1041900002051560126802F0020205920822EBE7A0
:1041A000094EB542F0D1156845F002051560126858
:1041B00002F0020205927215DEE70000E0440258A8
:1041C00000040258004401400048014070B5044614
:1041D00090F83C000D4601280BD0012084F83C00EB
:1041E0000C2A45D007DC5AB1042A1BD0082A78D102
:1041F0002CE0022070BD102A4ED0142A71D15DE04F
:10420000206801F085F92068816941F00801816129
:104210002068816921F00401816120682A6981692F
:10422000114311E0206801F0C7F92068816941F469
:10423000006181612068816921F480618161206869
:104240002969826942EA012181614AE0206801F01E
:10425000FFF92068C16941F00801C1612068C169A6
:1042600021F00401C16120682A69C169114311E08C
:10427000206801F033FA2068C16941F40061C1612E
:104280002068C16921F48061C16120682969C2691F
:1042900042EA0121C16124E0206801F055FA20685A
:1042A000416D41F0080141652068416D21F0040134
:1042B000416520682A69416D114311E0206801F0D1
:1042C00079FA2068416D41F4006141652068416DD3
:1042D00021F48061416520682969426D42EA01212B
:1042E0004165002084F83C0070BD10B5040003D087
:1042F00094F83D0010B107E0012010BD002084F8C3
:104300003C00204600F022F8022084F83D0020689E
:10431000211D01F07BF8012084F8480084F83E005C
:1043200084F83F0084F8400084F8410084F842009B
:1043300084F8430084F8440084F8450084F846007B
:1043400084F8470084F83D00002010BD704700004D
:1043500010B504464FF0020269B1042912D00829B1
:1043600017D00C291CD0102921D094F84300012823
:1043700024D0012010BD94F83E000128F9D184F822
:104380003E201DE094F83F000128F2D184F83F2040
:1043900016E094F840000128EBD184F840200FE0AB
:1043A00094F841000128E4D184F8412008E094F811
:1043B00042000128DDD184F8422001E084F8432046
:1043C0000122206801F084F81149206888420BD04E
:1043D0001049884208D01049884205D00F498842C8
:1043E00002D00F49884203D1416C41F4004141643D
:1043F00020680C4A81681140062906D0B1F5803F3B
:1044000003D0016841F001010160002010BD0000EF
:104410000000014000040140004001400044014010
:10442000004801400700010030B590F87C100129D8
:1044300018D0012280F87C202421C0F880100022AE
:10444000202450F8601B0B680D6823F0005325F002
:1044500001050D60426050F8601C0B600462027739
:10446000104630BD022030BD704770B5044690F84C
:104470007C0001281DD0012284F87C202420C4F86F
:10448000800020680568026822F00102026020684E
:10449000826822F060620A438260204601F0E4F9FB
:1044A0002268202100201560C4F8801084F87C0068
:1044B00070BD022070BD70B5044690F87C000128E4
:1044C0001DD0012284F87C202420C4F880002068BC
:1044D0000568026822F0010202602068826822F00A
:1044E00060420A438260204601F0BEF92268202122
:1044F00000201560C4F8801084F87C0070BD022094
:1045000070BD7047704770472DE9F041036804465D
:10451000002540F60F06D86919689A68304209D11B
:1045200086067DD501F0200602F080573E4377D005
:10453000E16E9EE0614E624F16400F4037436FD0F0
:10454000C70709D0CF0507D501271F62D4F88830E7
:1045500043F00103C4F8883083070AD5D30708D095
:10456000276802233B62D4F8883043F00403C4F880
:10457000883043070AD5D30708D0276804233B6255
:10458000D4F8883043F00203C4F8883003070CD510
:1045900001F02003334308D0266808233362D4F89F
:1045A000883043F00803C4F8883003050BD54B016D
:1045B00009D526684FF400633362D4F8883043F09D
:1045C0002003C4F88830D4F88830002B34D080061B
:1045D00009D501F0200002F08051084303D0E16EBC
:1045E00009B1204688472168D4F8880089684906BF
:1045F00002D410F0280F21D0204601F04FFA206895
:104600008168490615D5816821F040018160A06F5D
:1046100078B12C490165A06FFCF7B4FE002800E0DA
:1046200012E009D0A06F016D00E02046BDE8F04126
:1046300008472046FFF767FFBDE8F0812046FFF7F7
:1046400062FFC4F88850F7E7C60209D5560207D5BD
:104650004FF4801018622046BDE8F041FFF752BFCA
:10466000060609D501F0800602F40002164303D0C5
:10467000216F0029D9D1DFE742060DD54A060BD5B7
:104680001A682021204622F040021A60C4F88010E7
:10469000256700F0A7F9CFE7020206D54A0004D546
:1046A0002046BDE8F041FFF72CBFC001C4D500296A
:1046B000C2DA2046BDE8F041FFF7D6BE0100001087
:1046C00020010004F359000810B5040003D0D4F809
:1046D000800010B107E0012010BD002084F87C00AC
:1046E000204600F027F82420C4F8800020680168E4
:1046F00021F001010160204601F0F2F90128EBD020
:10470000A06A10B1204601F0E1F82068416821F468
:10471000904141602068816821F02A018160206811
:10472000016841F0010101602046BDE8104001F040
:1047300031B900002DE9F04387B0074614216846DF
:10474000FCF7E6F8414D0223396807223E48002471
:10475000A9424ED13C4910310D6845F010050D605D
:10476000096801F010010591016841F00101016043
:104770000068694600F0010005904FF4C0608DE8C4
:1047800019003348CDE90342FDF718FE314E2923C5
:10479000314A4FF480684FF40039304686E81C00F7
:1047A000C6E903487461B461C6E907497462FDF75C
:1047B000A3FA08B1FCF7C5FD264D2A22274940235C
:1047C0007835BE67B763284685E81E016C61AC6129
:1047D000C5E907496C62FDF78FFA08B1FCF7B1FD36
:1047E00000227D6725201146AF63FEF779F825206A
:1047F00024E01B4DA94223D1134908310D6845F42B
:1048000080250D60096801F480210591016841F05F
:10481000080101600068694600F0080005904FF447
:1048200040708DE819000F48CDE90342FDF7C6FD41
:10483000002227201146FEF753F82720FEF743F801
:1048400007B0BDE8F0830000E044025800100140CA
:10485000000002580003002410000240100402402F
:1048600000480040000C025870B50446D0F884009F
:10487000202843D169B362B394F87C0001283DD06D
:10488000A06F012684F87C600025A1652223A4F88E
:104890005C20C4F88850C4F88430E0B1184913464D
:1048A000C163A16F17480864A16F1748C864A06F5F
:1048B0000565A66D2168A06F32462431FDF7FEFB29
:1048C00048B11021C4F88810202084F87C50C4F826
:1048D0008000012070BD84F87C502068016841F49C
:1048E000807101602068816841F001018160206869
:1048F000816841F040018160002070BD022070BDE0
:10490000555A0008915A0008075A0008034988427E
:1049100002D1034803F024B970470000E8010024E5
:10492000F003002470472DE9F8430446D0F88000D6
:104930001F4616460D46202852D1DDB1D6B194F857
:104940007C0001284CD0012084F87C0021224FF00B
:104950000008C4F88880C4F880201834FDF758FE99
:10496000814654F8100CA687E687183CB0F5805FA6
:1049700003D004E00120BDE8F883206920B12E4671
:10498000002584F87C8010E00026FAE7802120468C
:1049900001F07EFAB8B9C6B116F8010B2168886239
:1049A000B4F85600401EA4F85600B4F856004B4622
:1049B0004FF0000200970028E8D14FF04001204658
:1049C00001F066FA38B10320D5E735F8020B21680B
:1049D000C0F30800E3E72020C4F880000020CAE705
:1049E0000220C8E770470000114808B5016841F08F
:1049F00001010160016801F001010091016841F0CD
:104A00000201016000680022114600F002000090DF
:104A10000B20FDF765FF0B20FDF755FF0022382026
:104A20001146FDF75DFFBDE808403820FDF74BBF9C
:104A3000D8440258F0B587B014216846FBF768FFE8
:104A40003648016841F010010160016801F0100171
:104A50000591016841F004010160016801F0040161
:104A60000591016841F080010160016801F0800159
:104A70000591016841F001010160016801F0010147
:104A80000591016841F002010160016801F0020135
:104A90000591016841F00801016000680022204E84
:104AA000042100F0080005903046FDF7A6FD1D4FDB
:104AB000002280213846FDF7A0FD1B4D1C2000245C
:104AC00069460294CDE900053846FDF777FC4FF4BE
:104AD00000506946CDE9000514480294FDF76EFCCC
:104AE00020206946CDE9000511480294FDF766FCD7
:104AF0000125694604200090CDE901543046039415
:104B0000FDF75CFC80200090CDE9015469463846F1
:104B10000394FDF753FC07B0F0BD0000E0440258D9
:104B20000004025800100258000011110008025839
:104B3000000002581348002110B5114C0123124AFD
:104B40000460C0E90121C0E9033141618161C161B3
:104B50000162FDF7B9FD08B1FCF7F3FB094800213C
:104B6000FDF75CFD08B1FCF7ECFB06480021FDF702
:104B700081FD002803D0BDE81040FCF7E2BB10BD6A
:104B800000540040B8000024B175703010B592B0E8
:104B90001C210BA8FBF7BCFE2C216846FBF7B8FED6
:104BA000204800241E494F224EF6602380E816005C
:104BB000C0E9033444618461FFF7E6F908B1FCF70A
:104BC000C0FB1848FFF791FB08B1FCF7BAFB0BAA32
:104BD00048F6B801602082E81300124800220BA9B1
:104BE0000E940F9410941194FFF7F0FA08B1FCF7AB
:104BF000A8FB4FF400500094019469460294CDE95B
:104C000004400848039406940A94FFF721F908B178
:104C1000FCF797FB0348FFF793FA12B010BD0000B2
:104C2000004401405001002410B592B01C210BA893
:104C3000FBF76EFE2C216846FBF76AFE2048002435
:104C40001E494F224EF6602380E81600C0E9033467
:104C500044618461FFF798F908B1FCF772FB1848CA
:104C6000FFF743FB08B1FCF76CFB0BAA49F6404188
:104C7000602082E81300124800220BA90E940F94C2
:104C800010941194FFF7A2FA08B1FCF75AFB4FF405
:104C900000500094019469460294CDE9044008480C
:104CA000039406940A94FFF7D3F808B1FCF749FB84
:104CB0000348FFF745FA12B010BD0000004801405C
:104CC0009C01002410B58EB000241C21009407A87C
:104CD000019402940394049405940694FBF718FE3F
:104CE0001E482F221E494FF08043C0E90241046153
:104CF0008461C0E90032FFF747F908B1FCF721FBF6
:104D00004FF48050009015486946FFF79DF908B1AF
:104D1000FCF717FB1148FFF7E8FA08B1FCF711FBA5
:104D20000E4804A904940694FFF7E2F808B1FCF7D2
:104D300008FB07AA44F62061602082E813000748B8
:104D4000042207A90B94FFF741FA08B1FCF7F9FA1E
:104D50000248FFF7F5F90EB010BD00000401002471
:104D6000A08601001848002110B5164C0C224FF403
:104D7000E1330460C0E90131C160C0E9041281611E
:104D8000C161016241628162FFF79EFC08B1FCF7DC
:104D9000D8FA0D480021FFF78EFB08B1FCF7D1FAD5
:104DA00009480021FFF761FB08B1FCF7CAFA064881
:104DB000FFF73AFB002803D0BDE81040FCF7C1BA6A
:104DC00010BD000000100140E80100241848002137
:104DD00010B5164C0C224FF4E1330460C0E90131E8
:104DE000C160C0E904128161C161016241628162F6
:104DF000FFF76AFC08B1FCF7A4FA0D480021FFF7A1
:104E00005AFB08B1FCF79DFA09480021FFF72DFB7A
:104E100008B1FCF796FA0648FFF706FB002803D016
:104E2000BDE81040FCF78DBA10BD000000480040FE
:104E3000740200247047000008B51B4A002020239C
:104E40001AA10090A2F1300002F0EDFB20B11AA0EF
:104E500002F0B2FB002008BD002208201146FDF739
:104E60003FFD0820FDF72FFD002209201146FDF728
:104E700037FD0920FDF727FD00220A201146FDF726
:104E80002FFD0A20FDF71FFD002228201146FDF707
:104E900027FD2820FDF717FD002217201146FDF7FA
:104EA0001FFD0148303808BD7C040024506F734456
:104EB0007463745F6D620000696E697420706F7353
:104EC0006974696F6E20646574656374206D6169CF
:104ED0006C626F78206661696C65642E0A00000060
:104EE0002DE9F047454D044689464FF0000A2868F1
:104EF000C04380070AD0414E283E306820F08060D1
:104F00003060FDF785FB0746B04608E00120BDE8AC
:104F1000F08700BFFDF77CFBC01B022867D8D8F8DC
:104F200000000001F6D4206829684FF4FE0721F440
:104F30007C313E0241EA00302860207AA389B4F82F
:104F400004C040022D4D2D495B1E227CACF1010CAA
:104F50001035091DA0F5007080B2521ECCF3080C6C
:104F600007EA034340EA0C00184306EA02621043D2
:104F700028600868626920F0C000104308600A6871
:104F8000A06922F0200202430A60281D0A6822F06C
:104F900010020A6002684FF6F873E4699A4342EA25
:104FA000C40202600868B9F1000F40F010020A6004
:104FB00011D00868B9F1010F11D040F40010086059
:104FC000D8F80000444640F08060C8F80000FDF7C3
:104FD0001FFB05460DE0086840F40020EFE740F4B1
:104FE0008010ECE7FDF714FB401B022801D90320D9
:104FF0008DE720680001F5D5504688E7284402581F
:105000002DE9F047454D044689464FF0000A2868CF
:10501000C04380070AD0414E283E306820F08050BF
:105020003060FDF7F5FA0746B04608E00120BDE81C
:10503000F08700BFFDF7ECFAC01B022867D8D8F84C
:1050400000008000F6D4208829684FF4FE0721F084
:105050007C713E0241EA00502860207AA389B4F8AE
:1050600004C040022D4D2D495B1E227CACF1010C89
:105070001835091DA0F5007080B2521ECCF3080C43
:1050800007EA034340EA0C00184306EA02621043B1
:1050900028600868626920F44060104308600A686C
:1050A000A06922F4007202430A60281D0A6822F4F3
:1050B00080720A6002684FF6F873E4699A4342EA24
:1050C000C40202600868B9F1000F40F480720A60FF
:1050D00011D00868B9F1010F11D040F0807008605C
:1050E000D8F80000444640F08050C8F80000FDF7B2
:1050F0008FFA05460DE0086840F48000EFE740F4C1
:105100000000ECE7FDF784FA401B022801D90320D8
:105110008DE720688000F5D5504688E7284402587E
:1051200010B502F003FA02F093FFBDE8104002F060
:105130000BBA000030B5CBB04C212FA8FBF7E8FB31
:10514000202142A8FBF7E4FBBC216846FBF7E0FB0B
:105150000220FDF7F7FB204800242049026842F4B2
:105160004042026002680A6842F001020A6009686F
:1051700001F001014A9101688904FCD502203890B0
:10518000A02139903C9008253D90C203CDE93A0119
:105190003E900123CDE93F5441942FA8CDE92F3211
:1051A000FEF7BEFB40203F210301CDE9455003221D
:1051B000CDE9470342AB499042A883E81600042199
:1051C000FEF79EF90B201E941D94209400906846D3
:1051D000FDF738FD4BB030BD184802582C0400587C
:1051E000484870B5474B0168103B474811F03802FA
:1051F00008D00111082A03D0102A08D0182A08D094
:1052000008466AE01968C1F3C101C84065E03F483B
:1052100063E03C493B4D18310C1D24350A68096890
:1052200026682D6802F0030406F00102C1F305119F
:10523000C5F3CC0515FB02F200EE102AB8EE400AC9
:10524000E9B3344ADFED320AB7EE001A6CB1DFED94
:10525000321A012C01D0022C32D002EE101A106842
:10526000F8EE422A81EEA22A33E01B6801EE901A82
:105270001168C3F3C103F8EE612AD84001EE900A29
:10528000C1F30800F8EE611A81EEA22A01EE900A3D
:105290001068F8EE611A40EE201A31EE810A22EE13
:1052A000000AC0F34620401C00EE900AF8EE600AA7
:1052B00080EE201ABCEEC10A10EE100A0DE00BE0E1
:1052C00001EE901A1068DFED152AF8EE611A82EEF1
:1052D000A12AC0F30800D9E700200A49104B083181
:1052E000104A0C680D68C4F3032105F00F04595CE3
:1052F0001B5DC84003F01F0120FA01F1C2E9000163
:1053000070BD0000104402580090D003001BB7008D
:1053100000000039304402580024744A001B374B07
:10532000CA8A00080C0000242E48F0B52E4A0168F5
:1053300041F470010160106800F00F00072804D2EA
:10534000106820F00F00C01D106028490020274C75
:1053500010340B68264D43F001030B6020600B688E
:105360002B400B60136803F00F03072B04D913685D
:1053700023F00F03DB1D13601C4C1E4A18341E4B18
:10538000261D371D2060194C1C4D28343060261D09
:105390003860371D23603B1D35601C1D3A60251D9C
:1053A0002E1D1860331D22602860326018600A6864
:1053B0000E4B134C22F4802260330A601860206880
:1053C0006FF30F00B0F1005F03D20E490120C1F866
:1053D000080143F2D2000C49024B4A03803B0860AB
:1053E0001A60F0BD88ED00E0002000520044025831
:1053F0007FEDF6EA80020101000202020000FF01D7
:105400000010005C00800051004000522DE9F04780
:10541000274B4FF0804A274D02689842264E274F6F
:10542000274C09D0504507D0A84205D0B04203D040
:10543000B84201D0A04205D1D1F804C022F07002D8
:105440004CEA0202DFF87CC0DFF87C809842DFF88B
:105450007C900FD050450DD0A8420BD0B04209D05F
:10546000B84207D0A04205D0604503D0404501D0E6
:10547000484503D1CD6822F440722A434D6922F099
:1054800080022A43026098428A68C2620A68826285
:1054900007D0A04205D0604503D0404501D0484523
:1054A00001D10969016301214161BDE8F087000074
:1054B000000001400004004000080040000C0040D3
:1054C0000004014000400140004401400048014008
:1054D00010B5046A012301F01F018B409C43046254
:1054E0008A40016A1143016210BD42EA03228368C7
:1054F0000A4323F47F410A4382607047034B82686A
:105500001A400A4342F00701816070478FFFCFFFC6
:105510002DE9F04F026ADFF88880DFF8889022F0EA
:105520000102DFF884A0DFF884B0214F0262DFF8C7
:1055300084C0066A4268836926F002060D68B84294
:105540008C6803EA0C0323F0030344EA060445EAEB
:10555000030507D0404505D0484503D0504501D04C
:10556000584505D1CB6824F00804234323F00404F4
:10557000B84207D0404505D0484503D0504501D03A
:10558000584505D122F44076D1E9053233431A4318
:1055900042608561496841630462BDE8F08F0000A4
:1055A0000004014000400140004401400048014027
:1055B000000001408FFFFEFFF0B5026A1E4E1F4C37
:1055C00022F01002DFF878E00262056A436882691F
:1055D00025F02005D1F808C0A0420F6802EA0602B3
:1055E00022F4407245EA0C1542EA072201D07045C8
:1055F00006D1CE6825F0800545EA061525F0400560
:10560000A0420AD0704508D00E4CA04205D00E4CE6
:10561000A04202D00D4CA04207D1D1E9054623F4A7
:10562000406343EA840343EA860343608261496836
:1056300081630562F0BD0000FF8FFFFE00000140A6
:105640000004014000400140004401400048014086
:10565000F0B5026A1C4D1D4E22F48072A84202620F
:10566000026A4368C76922F40072D1F808C00C6866
:1056700027F0730742EA0C2244EA070401D0B04243
:1056800006D1CF6822F4006242EA072222F4806247
:10569000A8420AD0B04208D00D4DA84205D00D4D09
:1056A000A84202D00C4DA84207D1D1E9055623F4F7
:1056B000405343EA051343EA06134360C461496853
:1056C000C1630262F0BD000000000140000401401F
:1056D00000400140004401400048014070B5026AAA
:1056E000144B22F4805202629842036A4268C469F1
:1056F00023F400538E680D6824F4E64443EA06332D
:1057000044EA05240BD00C4DA84208D00B4DA8420A
:1057100005D00B4DA84202D00A4DA84204D14D69D4
:1057200022F4804242EA85124260C4614968016401
:10573000036270BD000001400004014000400140D0
:105740000044014000480140F0B5026A22F4803272
:105750000262134F056A4268446D25F400350E89D4
:10576000B8420B6824F0700445EA064543EA040396
:105770000BD00C4CA04208D00B4CA04205D00B4CD7
:10578000A04202D00A4CA04204D14C6922F48032DB
:1057900042EA042242604365496881650562F0BDC2
:1057A000000001400004014000400140004401406D
:1057B00000480140F0B5026A22F480120262134FE1
:1057C000046A4268436D24F400140E89B8420D68DF
:1057D00023F4E04344EA065443EA05230BD00C4D7E
:1057E000A84208D00B4DA84205D00B4DA84202D0CC
:1057F0000A4DA84204D14D6922F4003242EA8522C2
:10580000426043654968C1650462F0BD0000014023
:1058100000040140004001400044014000480140B4
:1058200010B5036A046A23F00A0324F00104046239
:1058300084690B4324F0F00141EA021181610362A3
:1058400010BD10B5036A23F0100303628369046A74
:1058500023F4704324F0A00443EA0232826144EA54
:105860000111016210BD00003FB514A1D1E9002370
:1058700014A1CDE90023D1E90021CDE90221416E37
:10588000B9B1016802AC8A688968C2F34262490F03
:105890001DF80150615C2D01B5FBF1F1A0F86A1013
:1058A0001DF80210A25C0901B1FBF2F1A0F868102A
:1058B0003FBD0121A0F86A10F8E7000001010103D3
:1058C00007010000080402040801010190F82810F3
:1058D000C90706D00168C36A4A6822F400321A4335
:1058E0004A6090F82810890706D50168036B4A685A
:1058F00022F480321A434A6090F82810490706D5EE
:105900000168436B4A6822F480221A434A6090F887
:105910002810090706D50168836B4A6822F4004203
:105920001A434A6090F82810C90606D50168C36B6F
:105930008A6822F480521A438A6090F828108906F7
:1059400006D50168036C8A6822F400521A438A6003
:1059500090F82810490611D50168436C4A6822F472
:1059600080121A434A60416CB1F5801F06D101686C
:10597000836C4A6822F4C0021A434A6090F82810E7
:10598000090606D50168C26C486820F4002010435F
:1059900048607047F8B500260446C0F88860FCF7F8
:1059A00037FE054620686FF07E470068000708D57F
:1059B00000222B464FF400112046009700F068FAB1
:1059C00060B92068006840070AD500222B464FF4D2
:1059D00080012046009700F05BFA08B10320F8BD73
:1059E0002020C4F8800084F87C60C4F88400002083
:1059F000F8BD10B5806B0021A0F85E10A0F856101D
:105A0000FEF781FD10BD70B5846B00252168D4F8C8
:105A10008000D4F884608968090606D5212804D15D
:105A2000A4F85650204600F04DF8206880684006E3
:105A300006D5222E04D1A4F85E50204600F02EF8A0
:105A4000D4F8880040F01000C4F888002046FEF723
:105A50005AFD70BD10B5C169806BB1F5807F14D05F
:105A60000021A0F85E10202201680B6823F48073E7
:105A70000B6001688B6823F001038B6001688B6801
:105A800023F040038B60C0F88420FEF73FFF10BD79
:105A900010B5806BFEF746FF10BD000030B5016801
:105AA0002023074D00240A6822F490720A600168DE
:105AB0008A682A408A60C0F88430C46630BD00001D
:105AC000FEFFFFEF016820220B6823F0C0030B608C
:105AD00001688B6823F400038B60C0F88020704756
